:020000040000FA
:102000003AEF39F00044697374616E6369613A00B4
:1020100025640000FFFFFFFFFFFFFFFFFFFFFFFF43
:10202000FFFFFFFFFFFFFFFFFFFFFFFFFFFFFFFFC0
:10203000FFFFFFFFFFFFFFFFFFFFFFFFFFFFFFFFB0
:10724000FFFFFFFFFFFFFFFFFFFFFFFFFFFFFFFF4E
:10725000FFFFFFFFFFFF1200000E54EC39F0010E9C
:1072600054EC39F012008EEC39F064EC39F046EC55
:1072700039F0120000EE60F03C0EEE6AE806FDE127
:107280005F6A000EF86E00017FEF3BF0000ECC6EDF
:10729000E00ECF6E000ECE6ECECF66F0CFCF67F091
:1072A0009E90330ECD6E1200036E8C94035062ECF0
:1072B0003AF08C863F0E026E550EE82EFED7022E57
:1072C000FCD700F08C961200700ED36E000ED26EBA
:1072D000800E9B6E000EB56ED2AE71EF39F073EF7B
:1072E00039F06CEF39F01200046E04500F0B026E8F
:1072F0000450F00B036E8C8403380F0B62EC3AF0F1
:107300008C86A00EE82EFED78C96025062EC3AF0E6
:107310008C86A00EE82EFED78C961200000E8D6E85
:10732000000E8C6E000E896E000E8A6E000E8B6E43
:10733000070E966E92689368C50E946E95680F015D
:107340005E69C40E5D6F3F0E5C6F070E5F6F2F0EA0
:107350005B6F000E856EF18E120014BEBAEF39F02D
:10736000145006E11304D8B0B8EF39F0BAEF39F091
:10737000C8EF39F013C015F014C016F0151E161E14
:10738000154A162A15C013F016C014F0CCEF39F0C8
:1073900013C013F014C014F01200000E106E000E93
:1073A0000F6EDEEF39F00EC001F0026A0CC003F080
:1073B0000DC004F0C0EC3BF00F4A102A0F500A2415
:1073C000D96E10500B20DA6EDF500E6E0E50D8A41E
:1073D000ECEF39F0EEEF39F0D3EF39F01200000E98
:1073E000046E000E036E8B82280EE82EFED78B9261
:1073F00082A0FDEF39F0FFEF39F0F8EF39F006EF3A
:107400003AF0034A042AE80EE82EFED782B00BEFCA
:107410003AF00DEF3AF001EF3AF003C001F004C08A
:1074200002F0120053C057F054C058F026EF3AF063
:1074300051C03FF052C040F0570E416E000E426EF8
:1074400055C043F056C044F025EC3CF057C0F6FF61
:1074500058C0F7FF0800F5500009D8A432EF3AF001
:1074600034EF3AF018EF3AF0000E526E000E516E03
:1074700012005D0E00019C6F000E9D6F59C09EF0C2
:107480005AC09FF0000EA26F000EA16F000EA86FF1
:10749000000EA76F9E0E516E000E526E5BC053F031
:1074A0005CC054F09C0E556E000E566E12EC3AF015
:1074B0000001A1515924D96EA2515A20DA6E000E52
:1074C000DF6E1200016E01A068EF3AF06AEF3AF049
:1074D0006DEF3AF08C886EEF3AF08C9801A273EF62
:1074E0003AF075EF3AF078EF3AF08C8A79EF3AF0AB
:1074F0008C9A01A47EEF3AF080EF3AF083EF3AF0F5
:107500008C8C84EF3AF08C9C01A689EF3AF08BEFDB
:107510003AF08EEF3AF08C8E8FEF3AF08C9E12009C
:10752000056E0504D8A497EF3AF099EF3AF0AAEF68
:107530003AF004507F0F086E08380F0B066E0850A3
:107540000F0B076E065054EC39F0075054EC39F02D
:10755000C2EF3AF0020E0518D8A4B1EF3AF0B3EF3B
:107560003AF0C2EF3AF00450BF0F086E08380F0B24
:10757000066E08500F0B076E065054EC39F007509A
:1075800054EC39F0120016BEC8EF3AF0CAEF3AF0E8
:10759000D0EF3AF015C01AF016C01BF0D4EF3AF055
:1075A000000E1B6E000E1A6E000E196E000E186E85
:1075B000E6EF3AF0000E026E200E016E11C003F0ED
:1075C00012C004F0C0EC3BF0184A192A1A50185C9B
:1075D0001950800A176E1B50800A1758D8A0F3EF75
:1075E0003AF0F5EF3AF0DAEF3AF013C00AF014C0CF
:1075F0000BF011C00CF012C00DF0CDEC39F0120000
:10760000000E0A6E000E096E20EF3BF009500524B3
:10761000076E0A500620086E07C0F6FF08C0F7FF85
:10762000F86A070EF76403D00800F55005D0F6CFCE
:10763000E1FFF7CFE2FFE75074EC39F0094A0A2A7C
:1076400009500524076E0A500620086E07C0F6FF91
:1076500008C0F7FFF86A070EF76403D00800F5507A
:1076600005D0F6CFE1FFF7CFE2FFE7500009D8A43D
:107670003CEF3BF03EEF3BF006EF3BF01200000E1C
:10768000956E000E62EC3AF0020E056E380E046E36
:10769000AD0EE82EFED7042EFCD7052EFAD700F04B
:1076A000030E54EC39F04E0E046EEB0EE82EFED7AE
:1076B000042EFCD700F0030E54EC39F0AC0E046E2F
:1076C0006C0EE82EFED7042EFCD700D0030E54EC2F
:1076D00039F0020E54EC39F0020E54EC39F0080E79
:1076E00054EC39F0000E54EC39F00C0E54EC39F037
:1076F000000E54EC39F0060E54EC39F0120033EC65
:1077000039F03FEC3BF0EFEC39F001C064F002C01F
:1077100065F0880E596E000E5A6E100E5B6E200ECC
:107720005C6E64C05DF065C05EF039EC3AF02CEC44
:1077300039F0010E046E010E90EC3AF0050E056E64
:10774000200E066E00EC3BF0010E046E020E90EC73
:107750003AF0880E056E000E066E00EC3BF03D0E12
:107760000001AA6FE10EA96F3F0EE82EFED7A92FE8
:10777000FCD7AA2FFAD700D083EF3BF000EF10F030
:1077800003500410D8B4C7EF3BF0C9EF3BF0D2EF81
:107790003BF003500410D8A4D0EF3BF0D2EF3BF005
:1077A000D7EF3BF001502BEC39F024EF3CF020EE0A
:1077B00009F00350D9260450DA22DE50DE10D8B486
:1077C000E4EF3BF0E6EF3BF001EF3CF020EE09F098
:1077D0000350D9260450DA2210EE03F00350E126BC
:1077E0000450E222DE50E65CE650800A096EDE506C
:1077F000800A0958D8B0FFEF3BF001EF3CF024EFCE
:107800003CF020EE03F00350D9260450DA22DECFFC
:1078100005F0DDCF06F003C0D9FF04C0DAFFDECFEC
:1078200007F0DDCF08F005500724D96E0650082078
:10783000DA6E01C0DFFF20EE03F00350D9260450BA
:10784000DA22DE2A000EDD22120041C0D9FF42C03A
:10785000DAFFDECFF6FFDDCFF7FF0800F550250A8F
:10786000D8A435EF3CF037EF3CF0B7EF3CF041C027
:10787000D9FF42C0DAFFDE2A000EDD22000E000131
:10788000616F000E606F60C05FF06269636941C044
:10789000D9FF42C0DAFFDECF4FF0DDCF50F04FC04E
:1078A000F6FF50C0F7FF0800F550640AD8B45BEF4C
:1078B0003CF05DEF3CF06BEF3CF04FC0F6FF50C08A
:1078C000F7FF0800F550690AD8A469EF3CF06BEFA8
:1078D0003CF0AEEF3CF043C0D9FF44C0DAFFDFCF4D
:1078E00045F0020EDE26DFCF46F0000EDD2245C059
:1078F000D9FF46C0DAFFDECF47F0DDCF48F0000EFB
:1079000048BEFF0E496E4A6E4B6E4C6E4D6E4E6E0B
:10791000010E4F24456E000E5020466E41C0D9FF27
:1079200042C0DAFF45C0DEFF46C0DDFF3FC01CF0AD
:1079300040C01DF047C01EF048C01FF049C020F0F5
:107940004AC021F04BC022F04CC023F04DC024F0BF
:107950004EC025F042EC3EF0CBEF3CF041C0D9FFE9
:1079600042C0DAFFDE2A000EDD22CBEF3CF041C040
:10797000D9FF42C0DAFFDECFF6FFDDCFF7FF080008
:10798000F550016E026A3FC003F040C004F0C0EC45
:107990003BF0AEEF3CF01200000E126E08BED5EFC9
:1079A0003CF0D3EF3CF0E7EF3CF0081E071E061E4C
:1079B000051E041E031E021E016C000E022203227D
:1079C00004220522062207220822010E126E10BE92
:1079D000EEEF3CF0ECEF3CF0FEEF3CF0101E0F1E23
:1079E0000E1E0D1E0C1E0B1E0A1E096C000E0A2216
:1079F0000B220C220D220E220F22102209500A10F7
:107A00000B100C100D100E100F101010D8B40BEF3F
:107A10003DF00DEF3DF055EF3DF0010E116E1BEF07
:107A20003DF0D89009360A360B360C360D360E3638
:107A30000F361036112A10AE20EF3DF022EF3DF048
:107A400011EF3DF00950015C0A5002580B500358E9
:107A50000C5004580D5005580E5006580F5007583A
:107A600010500858D8A037EF3DF039EF3DF049EFFE
:107A70003DF00950015E0A50025A0B50035A0C5057
:107A8000045A0D50055A0E50065A0F50075A1050FE
:107A9000085AD89010320F320E320D320C320B329F
:107AA0000A320932112E22EF3DF01250D8B45BEFAA
:107AB0003DF05DEF3DF06DEF3DF0081E071E061E28
:107AC000051E041E031E021E016C000E022203226C
:107AD0000422052206220722082201C001F002C06A
:107AE00002F003C003F004C004F005C005F006C0B6
:107AF00006F007C007F008C008F01200000E126E72
:107B000010BE87EF3DF085EF3DF099EF3DF0101E80
:107B10000F1E0E1E0D1E0C1E0B1E0A1E096C000EE3
:107B20000A220B220C220D220E220F221022010EFD
:107B3000126E08BEA0EF3DF09EEF3DF0B2EF3DF0BB
:107B4000081E071E061E051E041E031E021E016CD3
:107B5000000E022203220422052206220722082206
:107B6000010E121A20EE13F0070EDE6AE806FDE29F
:107B700009500A100B100C100D100E100F101010E1
:107B8000D8B4C5EF3DF0C7EF3DF019EF3EF0010E60
:107B9000116ED5EF3DF0D89009360A360B360C360B
:107BA0000D360E360F361036112A10AEDAEF3DF0D4
:107BB000DCEF3DF0CBEF3DF0D890133614361536A0
:107BC00016361736183619361A360950015C0A501F
:107BD00002580B5003580C5004580D5005580E50C5
:107BE00006580F50075810500858D8A0FAEF3DF02B
:107BF000FCEF3DF00DEF3EF00950015E0A50025AD5
:107C00000B50035A0C50045A0D50055A0E50065A88
:107C10000F50075A1050085A1380D89010320F3264
:107C20000E320D320C320B320A320932112EDCEFD9
:107C30003DF01250D8B41FEF3EF021EF3EF031EF8F
:107C40003EF01A1E191E181E171E161E151E141E93
:107C5000136C000E14221522162217221822192244
:107C60001A2213C001F014C002F015C003F016C0B0
:107C700004F017C005F018C006F019C007F01AC0CC
:107C800008F012001EC034F01FC035F020C036F0DE
:107C900021C037F022C038F023C039F024C03AF0B8
:107CA00025C03BF03BBE57EF3EF05AEF3EF0010ED1
:107CB0005BEF3EF0000E3E6E3E50D8B462EF3EF0F9
:107CC00064EF3EF074EF3EF03B1E3A1E391E381E44
:107CD000371E361E351E346C000E352236223722F2
:107CE000382239223A223B22000163BF82EF3EF064
:107CF000635106E16205D8B080EF3EF082EF3EF0BE
:107D000088EF3EF0000E316E010E306E8CEF3EF0CB
:107D100062C030F063C031F060C032F061C033F057
:107D20003E50D8B496EF3EF098EF3EF0AFEF3EF005
:107D30003206D8A033063E50D8A4A1EF3EF0A3EF00
:107D40003EF0A9EF3EF0000E2F6E2B0E2E6EADEF23
:107D50003EF0000E2F6E2D0E2E6E2EC03EF0000E49
:107D60003D6E1F0E3C6E000E876F33EF3FF03C06FA
:107D7000D8A03D06680E3C24D96E000E3D20DA6E78
:107D800034C001F035C002F036C003F037C004F053
:107D900038C005F039C006F03AC007F03BC008F023
:107DA0000A0E096E000E0A6E000E0B6E000E0C6EAF
:107DB000000E0D6E000E0E6E000E0F6E000E106E99
:107DC000CCEC3CF001C026F002C027F003C028F044
:107DD00004C029F005C02AF006C02BF007C02CF023
:107DE00008C02DF026C013F027C014F0ADEC39F018
:107DF0001350300FDF6E3006D8A031063206D8A0FF
:107E0000330634C001F035C002F036C003F037C08D
:107E100004F038C005F039C006F03AC007F03BC0A6
:107E200008F00A0E096E000E0A6E000E0B6E000EB0
:107E30000C6E000E0D6E000E0E6E000E0F6E000E1C
:107E4000106E7EEC3DF001C034F002C035F003C08E
:107E500036F004C037F005C038F006C039F007C06E
:107E60003AF008C03BF03DBE3EEF3FF03D5008E128
:107E70003C04D8A03EEF3FF040EF3FF05CEF3FF016
:107E80003450351036103710381039103A103B1076
:107E9000D8A44DEF3FF04FEF3FF0B7EF3EF031BECB
:107EA0005CEF3FF0315006E13004D8B05AEF3FF0BC
:107EB0005CEF3FF0B7EF3EF03E50D8B462EF3FF0DA
:107EC00064EF3FF06FEF3FF03C06D8A03D06680E30
:107ED0003C24D96E000E3D20DA6E3EC0DFFF1CC090
:107EE00011F01DC012F0680E3C24136E000E3D20F0
:107EF000146E32C015F033C016F0C3EC3AF0120025
:020000040030CA
:0400000003285F3C36
:0200060081FF78
:020000040020DA
:08000000020A080C00000000D8
:00000001FF
