:020000040000FA
:10200000C1EF39F00044495354414E4349413A002D
:1020100025640000FFFFFFFFFFFFFFFFFFFFFFFF43
:10736000FFFFFFFFFFFFFFFFFFFF1200010E93EC87
:107370003AF012000F0EC112000E8B6E94809492A0
:10738000120000EE60F03E0EEE6AE806FDE15F6A74
:10739000000EF86E00017AEF3BF0000E936EEA0EDD
:1073A000036EC30EE82EFED7032EFCD700F0020EAC
:1073B00093EC3AF0280E93EC3AF0010E93EC3AF08D
:1073C0000C0E93EC3AF0060E93EC3AF01200086EB5
:1073D000020E0860EEEF39F0F0EF39F0F9EF39F016
:1073E00005500F0B8009096E095093EC3AF000EF3D
:1073F0003AF005500F0BC009096E095093EC3AF0B2
:1074000006C003F007C004F00EEC3BF0120014BEFF
:1074100014EF3AF0145006E11304D8B012EF3AF02A
:1074200014EF3AF022EF3AF013C015F014C016F042
:10743000151E161E154A162A15C013F016C014F094
:1074400026EF3AF013C013F014C014F01200000E2F
:10745000106E000E0F6E38EF3AF00EC001F0026AA7
:107460000CC003F00DC004F0C0EC3BF00F4A102A32
:107470000F500A24D96E10500B20DA6EDF500E6EBA
:107480000E50D8A446EF3AF048EF3AF02DEF3AF01C
:107490001200000E046E000E036E8B82280EE82E82
:1074A000FED78B9282A057EF3AF059EF3AF052EFA5
:1074B0003AF060EF3AF0034A042AE80EE82EFED7CD
:1074C00082B065EF3AF067EF3AF05BEF3AF003C055
:1074D00001F004C002F0120053C057F054C058F03D
:1074E00080EF3AF051C03FF052C040F0570E416E6D
:1074F000000E426E55C043F056C044F025EC3CF0FF
:1075000057C0F6FF58C0F7FF0800F5500009D8A48F
:107510008CEF3AF08EEF3AF072EF3AF0000E526EC6
:10752000000E516E1200026E02C001F0F00E011644
:107530008A500F0B01108A6E8A908A8200F08A921C
:10754000100E016E940EE82EFED7012EFCD700D04F
:1075500002C001F0013AF00E01168A500F0B011023
:107560008A6E8A8200F08A922F0E016EC00EE82E7B
:10757000FED7012EFCD71200026E02C001F0F00E01
:1075800001168A500F0B01108A6E8A808A8200F0E1
:107590008A92100E016E940EE82EFED7012EFCD7B3
:1075A00000D002C001F0013AF00E01168A500F0B14
:1075B00001108A6E8A8200F08A922F0E016EC00E30
:1075C000E82EFED7012EFCD712005D0E00019E6F43
:1075D000000E9F6F59C0A0F05AC0A1F0000EA46F1A
:1075E000000EA36F000EAA6F000EA96FA00E516EC1
:1075F000000E526E5BC053F05CC054F09E0E556E90
:10760000000E566E6CEC3AF00001A3515924D96E6D
:10761000A4515A20DA6E000EDF6E120024EF3BF008
:1076200003C0F6FF04C0F7FFF86A070EF76403D043
:107630000800F55005D0F6CFE1FFF7CFE2FFE750A5
:10764000BCEC3AF0034A042A03C0F6FF04C0F7FF7B
:10765000F86A070EF76403D00800F55005D0F6CF9E
:10766000E1FFF7CFE2FFE7500009D8A43AEF3BF083
:107670003CEF3BF010EF3BF0120016BE42EF3BF048
:1076800044EF3BF04AEF3BF015C01AF016C01BF078
:107690004EEF3BF0000E1B6E000E1A6E000E196EC0
:1076A000000E186E60EF3BF0000E026E200E016EB1
:1076B00011C003F012C004F0C0EC3BF0184A192AC4
:1076C0001A50185C1950800A176E1B50800A175800
:1076D000D8A06DEF3BF06FEF3BF054EF3BF013C0E1
:1076E0000AF014C00BF011C00CF012C00DF027EC22
:1076F0003AF01200BAEC39F08B92CDEC39F0000E72
:10770000056E050E066E200E076E010EE7EC39F0D1
:107710004E0E0001AB6FEB0EE82EFED7AB2FFCD761
:1077200049EC3AF001C068F002C069F08A0E596E67
:10773000000E5A6E100E5B6E200E5C6E68C05DF01F
:1077400069C05EF0E5EC3AF0000E056E8A0E066E3A
:10775000000E076E020EE7EC39F01F0E0001AC6F51
:10776000710EAB6F1E0EE82EFED7AB2FFCD7AC2FE1
:10777000FAD700F0B6EC39F07FEF3BF000EF10F0F5
:1077800003500410D8B4C7EF3BF0C9EF3BF0D2EF81
:107790003BF003500410D8A4D0EF3BF0D2EF3BF005
:1077A000D7EF3BF00150B5EC39F024EF3CF020EE80
:1077B00009F00350D9260450DA22DE50DE10D8B486
:1077C000E4EF3BF0E6EF3BF001EF3CF020EE09F098
:1077D0000350D9260450DA2210EE03F00350E126BC
:1077E0000450E222DE50E65CE650800A096EDE506C
:1077F000800A0958D8B0FFEF3BF001EF3CF024EFCE
:107800003CF020EE03F00350D9260450DA22DECFFC
:1078100005F0DDCF06F003C0D9FF04C0DAFFDECFEC
:1078200007F0DDCF08F005500724D96E0650082078
:10783000DA6E01C0DFFF20EE03F00350D9260450BA
:10784000DA22DE2A000EDD22120041C0D9FF42C03A
:10785000DAFFDECFF6FFDDCFF7FF0800F550250A8F
:10786000D8A435EF3CF037EF3CF0B7EF3CF041C027
:10787000D9FF42C0DAFFDE2A000EDD22000E000131
:10788000656F000E646F64C05FF06669676941C030
:10789000D9FF42C0DAFFDECF4FF0DDCF50F04FC04E
:1078A000F6FF50C0F7FF0800F550640AD8B45BEF4C
:1078B0003CF05DEF3CF06BEF3CF04FC0F6FF50C08A
:1078C000F7FF0800F550690AD8A469EF3CF06BEFA8
:1078D0003CF0AEEF3CF043C0D9FF44C0DAFFDFCF4D
:1078E00045F0020EDE26DFCF46F0000EDD2245C059
:1078F000D9FF46C0DAFFDECF47F0DDCF48F0000EFB
:1079000048BEFF0E496E4A6E4B6E4C6E4D6E4E6E0B
:10791000010E4F24456E000E5020466E41C0D9FF27
:1079200042C0DAFF45C0DEFF46C0DDFF3FC01CF0AD
:1079300040C01DF047C01EF048C01FF049C020F0F5
:107940004AC021F04BC022F04CC023F04DC024F0BF
:107950004EC025F042EC3EF0CBEF3CF041C0D9FFE9
:1079600042C0DAFFDE2A000EDD22CBEF3CF041C040
:10797000D9FF42C0DAFFDECFF6FFDDCFF7FF080008
:10798000F550016E026A3FC003F040C004F0C0EC45
:107990003BF0AEEF3CF01200000E126E08BED5EFC9
:1079A0003CF0D3EF3CF0E7EF3CF0081E071E061E4C
:1079B000051E041E031E021E016C000E022203227D
:1079C00004220522062207220822010E126E10BE92
:1079D000EEEF3CF0ECEF3CF0FEEF3CF0101E0F1E23
:1079E0000E1E0D1E0C1E0B1E0A1E096C000E0A2216
:1079F0000B220C220D220E220F22102209500A10F7
:107A00000B100C100D100E100F101010D8B40BEF3F
:107A10003DF00DEF3DF055EF3DF0010E116E1BEF07
:107A20003DF0D89009360A360B360C360D360E3638
:107A30000F361036112A10AE20EF3DF022EF3DF048
:107A400011EF3DF00950015C0A5002580B500358E9
:107A50000C5004580D5005580E5006580F5007583A
:107A600010500858D8A037EF3DF039EF3DF049EFFE
:107A70003DF00950015E0A50025A0B50035A0C5057
:107A8000045A0D50055A0E50065A0F50075A1050FE
:107A9000085AD89010320F320E320D320C320B329F
:107AA0000A320932112E22EF3DF01250D8B45BEFAA
:107AB0003DF05DEF3DF06DEF3DF0081E071E061E28
:107AC000051E041E031E021E016C000E022203226C
:107AD0000422052206220722082201C001F002C06A
:107AE00002F003C003F004C004F005C005F006C0B6
:107AF00006F007C007F008C008F01200000E126E72
:107B000010BE87EF3DF085EF3DF099EF3DF0101E80
:107B10000F1E0E1E0D1E0C1E0B1E0A1E096C000EE3
:107B20000A220B220C220D220E220F221022010EFD
:107B3000126E08BEA0EF3DF09EEF3DF0B2EF3DF0BB
:107B4000081E071E061E051E041E031E021E016CD3
:107B5000000E022203220422052206220722082206
:107B6000010E121A20EE13F0070EDE6AE806FDE29F
:107B700009500A100B100C100D100E100F101010E1
:107B8000D8B4C5EF3DF0C7EF3DF019EF3EF0010E60
:107B9000116ED5EF3DF0D89009360A360B360C360B
:107BA0000D360E360F361036112A10AEDAEF3DF0D4
:107BB000DCEF3DF0CBEF3DF0D890133614361536A0
:107BC00016361736183619361A360950015C0A501F
:107BD00002580B5003580C5004580D5005580E50C5
:107BE00006580F50075810500858D8A0FAEF3DF02B
:107BF000FCEF3DF00DEF3EF00950015E0A50025AD5
:107C00000B50035A0C50045A0D50055A0E50065A88
:107C10000F50075A1050085A1380D89010320F3264
:107C20000E320D320C320B320A320932112EDCEFD9
:107C30003DF01250D8B41FEF3EF021EF3EF031EF8F
:107C40003EF01A1E191E181E171E161E151E141E93
:107C5000136C000E14221522162217221822192244
:107C60001A2213C001F014C002F015C003F016C0B0
:107C700004F017C005F018C006F019C007F01AC0CC
:107C800008F012001EC034F01FC035F020C036F0DE
:107C900021C037F022C038F023C039F024C03AF0B8
:107CA00025C03BF03BBE57EF3EF05AEF3EF0010ED1
:107CB0005BEF3EF0000E3E6E3E50D8B462EF3EF0F9
:107CC00064EF3EF074EF3EF03B1E3A1E391E381E44
:107CD000371E361E351E346C000E352236223722F2
:107CE000382239223A223B22000167BF82EF3EF060
:107CF000675106E16605D8B080EF3EF082EF3EF0B6
:107D000088EF3EF0000E316E010E306E8CEF3EF0CB
:107D100066C030F067C031F064C032F065C033F047
:107D20003E50D8B496EF3EF098EF3EF0AFEF3EF005
:107D30003206D8A033063E50D8A4A1EF3EF0A3EF00
:107D40003EF0A9EF3EF0000E2F6E2B0E2E6EADEF23
:107D50003EF0000E2F6E2D0E2E6E2EC03EF0000E49
:107D60003D6E1F0E3C6E000E896F33EF3FF03C06F8
:107D7000D8A03D066A0E3C24D96E000E3D20DA6E76
:107D800034C001F035C002F036C003F037C004F053
:107D900038C005F039C006F03AC007F03BC008F023
:107DA0000A0E096E000E0A6E000E0B6E000E0C6EAF
:107DB000000E0D6E000E0E6E000E0F6E000E106E99
:107DC000CCEC3CF001C026F002C027F003C028F044
:107DD00004C029F005C02AF006C02BF007C02CF023
:107DE00008C02DF026C013F027C014F007EC3AF0BD
:107DF0001350300FDF6E3006D8A031063206D8A0FF
:107E0000330634C001F035C002F036C003F037C08D
:107E100004F038C005F039C006F03AC007F03BC0A6
:107E200008F00A0E096E000E0A6E000E0B6E000EB0
:107E30000C6E000E0D6E000E0E6E000E0F6E000E1C
:107E4000106E7EEC3DF001C034F002C035F003C08E
:107E500036F004C037F005C038F006C039F007C06E
:107E60003AF008C03BF03DBE3EEF3FF03D5008E128
:107E70003C04D8A03EEF3FF040EF3FF05CEF3FF016
:107E80003450351036103710381039103A103B1076
:107E9000D8A44DEF3FF04FEF3FF0B7EF3EF031BECB
:107EA0005CEF3FF0315006E13004D8B05AEF3FF0BC
:107EB0005CEF3FF0B7EF3EF03E50D8B462EF3FF0DA
:107EC00064EF3FF06FEF3FF03C06D8A03D066A0E2E
:107ED0003C24D96E000E3D20DA6E3EC0DFFF1CC090
:107EE00011F01DC012F06A0E3C24136E000E3D20EE
:107EF000146E32C015F033C016F03DEC3BF01200AA
:020000040030CA
:08000000000E181EFF8181FFB4
:020000040020DA
:080000000B09030A00000000D7
:00000001FF
